:10000000681300201D83000093150000E715000011
:1000100000000000000000000000000000000000E0
:100020000000000000000000000000005B1D000058
:1000300000000000000000005F1D00008F3800007D
:10004000FD7F0000594C0000994A0000074D000058
:100050002B800000574E0000D34F0000FF5A0000D5
:1000600067820000C58000007382000071490000B3
:100070004D8300004F830000518300005383000034
:10008000558300005783000059830000394C00005D
:100090005B8300005D8300005F83000061830000DC
:1000A00063830000658300006783000069830000AC
:1000B0006B8300006D8300006F830000718300007C
:1000C00000B5010049B2002905D40121C206D20EB3
:1000D0009140884A116000BD00B5010049B2002975
:1000E00005D40121C206D20E9140834A116000BDA1
:1000F00000B5010049B2002905D40121C206D20E83
:1001000091407E4A116000BDF0B5020052B2002A53
:100110001CD403227A4B040064B2A40804256C4367
:100120001C59FF251600064008277E43B540AC4306
:100130008D01EDB20240082672439540254302002E
:1001400052B29208042462439D5022E00F246D4A6B
:10015000032305006DB22540083DAD080426754314
:10016000060076B23440083CA408042674431659AD
:10017000FF27BC461C00044008277C436746A74075
:10018000BE438C01E4B2034008277B439C403443C8
:100190005451F0BDF1B582B002980068002800D03B
:1001A00080E0594800F0FCFD5848016880220A436D
:1001B000026057480168802212010A4302605548D4
:1001C0000168554A0A400260544855490A6802408D
:1001D0000A6054490A681040086053480168C02208
:1001E000914301600168016050480168504A0A402B
:1001F0000260504A504913888B4209D003687F241B
:10020000A3430360036814786406640E1C4304600F
:100210004A4B1C888C420BD00268494C1440046045
:1002200002681C882404FE25ED0325401543056063
:10023000444C22888A420BD00168434A0A4002603B
:10024000016822881202FE23DB0113400B43036086
:100250001320FFF741FF1320FFF74AFF032113206C
:10026000FFF752FF1320FFF72BFFA248016801227E
:100270000A4302600020C0439F4908600F209F4945
:1002800008609F48016806220A430260A820009087
:100290000025BC4E37002A000099380001F07AF999
:1002A000029846600020FEBD38B50400A7482168CA
:1002B000042251434558280000F072FD154801689A
:1002C000154A0A400260154815490A6802400A604A
:1002D00014490A68104008601320FFF7FDFE132040
:1002E000FFF706FF83480168012291430160002067
:1002F00032BD000000E100E080E100E080E200E0CB
:1003000000E400E01CED00E0000001403424004067
:100310003824004040000140FFFFFBFFFF3FFFFF8C
:10032000000C0040040C00400460014050000140FB
:10033000FFFFFFE784FAFF1FFFFF000088FAFF1F9F
:10034000FFFF80FF8CFAFF1FFF80FFFFF1B50F005A
:100350007E48009909680422514344583868000ACD
:100360000007000F0628012638683040002805D114
:10037000AD48016801229143016003E0AA48016889
:1003800031430160A9480168802252020A43026099
:10039000206FA74901402167206FB988491E0902D3
:1003A00001432167386840083040002808D1206F99
:1003B000012188432067A06F01218843A06732E0B4
:1003C000206F30432067A06F01218843A067A06F92
:1003D000FE218843A067A06FF97A491E49000143B6
:1003E000A167A06F93490140A167A06FB989491E19
:1003F00009040143A167A06F3043A0670025ED43C6
:100400002800451E002805D0A06FC00502D400F0CA
:10041000C3FCF5E7002D06D1BB214900864801F059
:10042000E0F8812065E0032039688908014000294F
:1004300008D1206F042188432067E06A01218843A6
:10044000E06255E0396889080140012922D1206F16
:10045000042188432067E06A01218843E062606FDD
:10046000C44901406167606F39680903F0221203D3
:100470000A4002436267606F400B40036067606F31
:100480007968090C0905090D01436167E06A0643B3
:10049000E6622DE0396889080840022828D1206FDB
:1004A000042188432067E06A01218843E062206FCD
:1004B000302188432067206F3968090A30220A40BA
:1004C00002432267E06F39680902F02212030A40F2
:1004D0000243E267E06F400B4003E067E06FB968FA
:1004E0000905090D0143E167206F042101432167DC
:1004F0000020F2BD10000140580001405C000140A6
:100500000028004010B4010010480A6804235A4330
:100510008258106F042398431067D06A01239843D0
:10052000D062906F012398439067106F404B034057
:100530001367106F0123984310673B480368012439
:10054000A3430360002010BC7047000048830000F4
:10055000F0B402000B784C78874804255D43455978
:10056000EE680327BC462000022778436746874091
:100570003743EF606868814EA640B0436860002052
:10058000F0BC704770090020F0B402000B784C7882
:10059000794804255D434559EE680327BC46200091
:1005A0000227784367468740BE43EE600126E8682D
:1005B000844620000227784337008740604607437F
:1005C000EF602868A640B043286068686B4EA6407C
:1005D000B04368600020F0BC704770B502000B7833
:1005E0006748146804256C4304591800C0B22028D9
:1005F00005D2A06E01259D400543A56606E0E56E87
:1006000001261800203886402E43E666002070BD83
:1006100001005B480A6804235A4382580020906610
:10062000D066002070470000482400404C24004061
:10063000FF00FFFFFFFF00FC247F0000F3B585B043
:100640000598406801904E48059909680422514375
:1006500040580390039800F07AFC002801D0012054
:1006600085E00698807801281BD14648069989685C
:10067000098804224A438558286804680023019A9F
:100680002900200000F0AEFB69460870684600783B
:10069000002801D180206AE001200199922288522D
:1006A00060E006988078002833D100252C00069859
:1006B000866806980088854227D23248318804220D
:1006C0004A438058029002980068076838790028E9
:1006D00018D023009BB2019A0299380000F082FBE7
:1006E0006946087068460078002801D180203EE005
:1006F00030880199220092B202235343C9189622EE
:100700008852641C6D1CB61CD3E701989221445298
:1007100028E006988078022824D10698856800246D
:1007200006980088844218D21648298804224A4331
:1007300087583868066823009BB2019A3900300058
:1007400000F050FB6946087068460078002801D127
:1007500080200CE0641CAD1CE2E70698008801993B
:10076000922288520699059800F0FAFB002007B003
:10077000F0BD0000FFFFF0FF1C820000010001003F
:100780004883000060650000F1B584B004984068BB
:1007900003900498C06904992C22895C0C2251436F
:1007A00047189C4804990968042251434458200082
:1007B00000F026FCBE6800253888854237D296486E
:1007C000318804224A4380580190019800680068EB
:1007D0000290B878012804D002980079002806D148
:1007E00022E0002D03D10298007900281FD0019843
:1007F0000068017A200000F007FC02980068007889
:10080000102811D301980068017A200000F01EFC26
:1008100001980068C179200000F0F6FB019800689B
:10082000C179200000F001FC6D1CB61CC4E7B8784B
:10083000002802D0B87801281CD1E06B8021490241
:100840000143E163E06B802189020143E1630025FC
:10085000E06B72490140E163E06B80214900014394
:10086000E163206C6E4901402164206910218843B6
:1008700020610FE0B87802280AD1E06B802149029C
:100880000143E163E06B67490140E163012501E059
:100890008220A5E004982921405C022829D000206C
:1008A000039990228852039804992E22895C302261
:1008B000514340180090009800686063002200983F
:1008C0002021415C200000F08DFC2A00D2B200986B
:1008D0002821415C200000F011FD00982021415C9E
:1008E000200000F0C4FB00982821415C200000F0AB
:1008F00017FC03207968014001291FD10026B87830
:10090000002809D10498406A03999622895A042242
:100910004A43805806000AE0B878022807D10498B4
:10092000406AB968098804224A4380580600002EAC
:1009300017D03100049800F098FD12E07968084063
:1009400002280ED1B878002802D0B878012808D142
:10095000206C802109030143216420691021014397
:10096000216120690001000920612069CF4901400F
:100970002161B878002803D002280AD006D30EE0FF
:1009800020698021C903014321610AE020692061B7
:1009900007E02069802109040143216101E08220F0
:1009A0001EE02069802149030143216120698021E3
:1009B00088432061206920218843206104982921EF
:1009C000405C002804D004982921405C012802D111
:1009D000200000F02FFD60690121014361610020CA
:1009E00005B0F0BD38B504000A482168042251431F
:1009F000455868690421014369612920205C002869
:100A000003D02920205C012802D1280000F01DFD20
:100A1000002032BD4883000060650000FFFCFFFF3E
:100A2000FFFFF7FFFFFFFDFFF0B585B00400B948F9
:100A30002168042251434058009060680190E069A9
:100A40002C21615C0C2251434618009840688007B5
:100A500000D4F9E000980068800700D4F4E0022098
:100A6000009908602920205C022800D114E1019837
:100A70009021475A3800318880B2884207D320003D
:100A800000F0F8FE206B08210143216304E1B078F7
:100A900000280CD1606A01993A0092B202235343B4
:100AA000C9189622895A04224A43855828E0B0780A
:100AB000012816D1380080B2002807D0200000F0AD
:100AC000D9FE206B082101432163E5E0606AB1682B
:100AD0003A0092B202235343C95A04224A4385582A
:100AE0000EE0B07802280AD1606AB1683A0092B28A
:100AF00002235343C95A04224A43855800E0CBE0FD
:100B0000009800F0AFFC694608826846028A290016
:100B1000200000F0C1FEB078012805D13800401C4B
:100B2000019990228852B7E07F1C380001999222E7
:100B3000895A80B2884200D382E001982E21615CFC
:100B400030225143401802900298390089B20422A1
:100B50004A438058009948630298390089B2401886
:100B60002021415C009800F082FA0298390089B295
:100B700040182821415C009800F0D2FAB078002893
:100B800014D100220298390089B240182021415C1A
:100B9000009800F027FB00220298390089B2401823
:100BA0002821415C009800F0A9FB16E0B0780228EB
:100BB00013D100220298390089B240182021415CEB
:100BC000009800F00FFB01220298390089B240180A
:100BD0002821415C009800F091FB30798007800F5C
:100BE000012827D100200390B07800280DD1606A39
:100BF00001993A0092B202235343C9189622895AA6
:100C000004224A43805803900DE0B07802280AD1AC
:100C1000606AB1683A0092B202235343C95A04226F
:100C20004A43805803900398002803D0039920007A
:100C300000F01BFC009840690221014300984161CB
:100C400001989021475227E004200099496801400B
:100C5000002921D000990968014000291CD0009981
:100C6000086001989021405A01999222895A88423D
:100C700007D2200000F0FEFD206B08210143216314
:100C80000AE030798007800F012802D1200000F0AF
:100C90006FFC200000F015FE05B0F0BD10B504009B
:100CA0004E48A18800F0B3FF10BD0000FFFF3FFFDA
:100CB00010B504000120216849080140002903D132
:100CC0002000FFF7EBFF0AE02168490808400028F0
:100CD00003D0A1894248484301E00020C0434008B6
:100CE00010BD10B504000120216849080140002909
:100CF00003D12000FFF7D2FF0AE02168490808402D
:100D0000002803D0A1893648484301E00020C043B1
:100D100010BD00004883000038B504000D0020001D
:100D2000FFF7C6FF0021C94388421BD00322236876
:100D30009B081340002B04D023689B081340022B10
:100D400004D1290000F063FF01000AE023689B083A
:100D50001A40012A05D10221694300F058FF010021
:100D6000FFE7080032BD38B504000D002000FFF792
:100D7000B8FF290000F04BFF32BD01680C229143FF
:100D800001607047010001208840401E7047030049
:100D900001208840401E7047904891490860704784
:100DA00010B59049884217D18F49904A0A60904AFD
:100DB000136820241C43146013682024A343136089
:100DC00000220A608B490A688B4B13400B608B49E9
:100DD0000A68D24B13400B6010BD00000024F400E1
:100DE00080841E00F7B5009800680078102856D25D
:100DF000009800210A001400E4B2032C00D3A4E000
:100E0000029C1500EDB23026754364191D00ADB289
:100E100004266E43A41921602568C68B761E36050C
:100E20002E4326602568067F083E36042E43266042
:100E300025681600F6B286192027F65D2E43266037
:100E4000019D1600F6B2AD192D79002D0DD0256843
:100E5000019E1700FFB2F619367936022E4326603E
:100E60002568802636022E432660029D1600F6B2C3
:100E700030277E43AD191E00B6B2AD192026877EFD
:100E8000AF55029D1600F6B230277E43AD191E0005
:100E9000B6B2AD192826C77EAF55521CABE70098F5
:100EA0000068007810284ED3009800210A00140032
:100EB000E4B2032C49D2029C1500EDB230267543F2
:100EC00064191D00ADB204266E43A4192160256883
:100ED000868B761E36052E4326602568468B083E97
:100EE00036042E4326602568019E1700FFB2F619CE
:100EF00036792E4326602568019E1700FFB2F61949
:100F0000367936022E4326602568802636022E4327
:100F10002660029D1600F6B230277E43AD191E00F2
:100F2000B6B2AD192026077EAF55029D1600F6B267
:100F300030277E43AD191E00B6B2AD192826077EB4
:100F4000AF55521CB3E7002000E00120FEBD00B504
:100F500001004869C00701D5012000E0002000BD64
:100F6000F3B581B09A4E00279A4801990968042286
:100F700051434458E06A98490140E1623000390029
:100F80000822002300F09AFE944A002300F0AFFEEE
:100F90000500002D00D06D1E7F2D01D37F200500A0
:100FA000E06A29040143E162300039000A2200238B
:100FB00000F084FE8A4A002300F099FE002800D049
:100FC000401EFF2801D3FF210800E16A02020A4304
:100FD000E262E16A08220A43E262F7BD5A5A341219
:100FE000001401400000014014280040DF9B57130B
:100FF0001C28004038240040FFF7FFFF4C2400402D
:1010000000218161C161704710B5202905D2826934
:1010100001238B401343836106E0C26901230C0066
:10102000203CA3401343C36110BD10B5202905D255
:10103000026A01238B401343036206E0426A0123E4
:101040000C00203CA3401343436210BD10B520297F
:1010500005D2026A01238B409A43026206E0426A8B
:1010600001230C00203CA3409A43426210BD00B50E
:10107000C26B9E4B1340C3630A00D2B2002A09D050
:10108000022A16D00DD3042A28D01CD3062A39D020
:101090002ED342E0C26B964B1340C363C26BC26354
:1010A0003BE0C26B8023DB011343C363C26BC263AB
:1010B00033E0C26B8E4B1340C363C26B8023DB00F3
:1010C0001343C36329E0C26B8023DB011343C36373
:1010D000C26B8023DB001343C3631EE0C26B844BEF
:1010E0001340C363C26B80231B011343C36314E02B
:1010F000C26B7F4B1340C363C26BC0231B011343FE
:10110000C3630AE0C26B8023DB011343C363C26B7A
:10111000C0231B011343C363FFE700BDFFFFFEFFB6
:1011200000B5C26B734B1340C3630A00D2B2002AEE
:1011300009D0022A16D00DD3042A28D01CD3062A9F
:1011400039D02ED342E0C26B6B4B1340C363C26BEA
:10115000C2633BE0C26B80231B021343C363C26BB9
:10116000C26333E0C26B644B1340C363C26B802322
:101170005B011343C36329E0C26B80231B0213434B
:10118000C363C26B80235B011343C3631EE0C26B66
:10119000594B1340C363C26B80239B011343C3634A
:1011A00014E0C26B544B1340C363C26BC0239B015A
:1011B0001343C3630AE0C26B80231B021343C36360
:1011C000C26BC0239B011343C363FFE700BD000054
:1011D0000024F40048830000F100008000D43000B7
:1011E0000048E80130B50B00DBB2002B09D0022B20
:1011F00023D014D3042B3CD02DD3062B55D046D36B
:1012000061E01300DBB2002B01D17F4B06E013003D
:10121000DBB2012B01D17D4B00E066E054E013000E
:10122000DBB2002B01D17A4B06E01300DBB2012BBD
:1012300001D1784B00E058E046E01300DBB2002B10
:1012400001D1754B06E01300DBB2012B01D1734BCA
:1012500000E04AE038E01300DBB2002B01D1704B14
:1012600006E01300DBB2012B01D16E4B00E03CE045
:101270002AE01300DBB2002B01D16B4B06E0130018
:10128000DBB2012B01D1694B00E02EE01CE0130022
:10129000DBB2002B01D1664B06E01300DBB2012B61
:1012A00001D19E4B00E020E00EE01300DBB2002BEA
:1012B00001D19B4B06E01300DBB2012B01D1994B0E
:1012C00000E012E000E010E01C88974DAC4206D030
:1012D000846B1F25AC431D882C43846305E0846B1D
:1012E0001F25AC4310252543856330BDFFF3FFFF69
:1012F000FFBFFFFFFFCFFFFFFF7FFFFF30B50B00FA
:10130000DBB2002B09D0022B23D014D3042B3CD00A
:101310002DD3062B55D046D361E01300DBB2002B52
:1013200001D1824B06E01300DBB2012B01D1804BCF
:1013300000E068E054E01300DBB2002B01D17D4BEC
:1013400006E01300DBB2012B01D17B4B00E05AE039
:1013500046E01300DBB2002B01D1784B06E013000E
:10136000DBB2012B01D1764B00E04CE038E01300FA
:10137000DBB2002B01D1734B06E01300DBB2012B73
:1013800001D1714B00E03EE02AE01300DBB2002BFC
:1013900001D16E4B06E01300DBB2012B01D16C4B87
:1013A00000E030E01CE01300DBB2002B01D1694B00
:1013B00006E01300DBB2012B01D1674B00E022E015
:1013C0000EE01300DBB2002B01D1644B06E01300EA
:1013D000DBB2012B01D1624B00E014E000E012E02F
:1013E0001C88514DAC4207D0846B5E4D25401C8853
:1013F00024022C43846306E0846B5A4D25408024EC
:1014000064012C43846330BDB0FAFF1FB8FAFF1F9C
:10141000C0FAFF1FC8FAFF1FD0FAFF1FD8FAFF1F3C
:10142000E8FAFF1FF8FAFF1F50FBFF1F58FBFF1FD2
:1014300070FBFF1F022101604268114341600421DB
:1014400001604268114341607047022101604168B8
:1014500002229143416004210160416804229143CA
:1014600041607047806A80B27047F3B582B0039ADA
:101470001268127A0192039A12689279102A03D1A3
:10148000039A1268D27901E00022D243029BDB6802
:101490000024029D2D8AAC423ED21D7800955D78D5
:1014A0002900314D009E04277E43AD5928000025B8
:1014B000ED43AA4202D09D78954203D09D78019ECB
:1014C000B5420FD1C6680327BC460D0002277D43F5
:1014D0006746AF403743C7604568244E8E40B543EA
:1014E000456016E0C6680327BC460D0002277D4311
:1014F0006746AF40BE43C6600126C568AC460D00D6
:1015000002277D433700AF4065462F43C7608E40BA
:101510008661641CDB1CBCE7FFBD000078FBFF1F7D
:1015200080FBFF1F88FBFF1FFFFF0000B4FAFF1FB7
:10153000BCFAFF1FC4FAFF1FCCFAFF1FD4FAFF1F2B
:10154000DCFAFF1FECFAFF1FFCFAFF1F54FBFF1F22
:101550005CFBFF1F74FBFF1F7CFBFF1F84FBFF1F57
:101560008CFBFF1FFFE0FFFF1C8200000100010059
:1015700070B504000025208A854209D2E068032165
:101580006943461831002000FEF7E2FF6D1CF2E7C8
:1015900070BDFEE71206130A1A43130C1A4300BF6C
:1015A000094205D0830705D00270401C491EF9D1BD
:1015B000704700001300103906D330B41400150032
:1015C00010393CC0FCD230BC490700D30CC000D558
:1015D00004C0890002D30280801C002900D502705B
:1015E000704700B5FEE7FEE7F8B5040000273D00B0
:1015F000276338002B216054012001002C22A154C4
:101600002D21605438002E2160542000FEF7C2FDC9
:1016100006003000C0B2002802D03000C0B22FE077
:101620003D00208A854212D2E068032169434018B8
:10163000009000992000FEF78BFF06003000C0B23A
:10164000002802D03000C0B21AE06D1CE9E720008B
:10165000FEF7DEFF3D00207E85420FD2606947190C
:1016600039002000FEF7B9FF06003000C0B20028A4
:1016700002D03000C0B203E06D1CECE73000C0B215
:10168000F2BDF8B5040000252F00206B80070AD5B5
:10169000200000F0EFF807003800C0B2002802D0A8
:1016A0003800C0B22AE02000FEF72CFF2E00208A6E
:1016B00086420AD2E06803217143401800900099E5
:1016C0002000FEF761FF761CF1E72000FEF7ECFD3D
:1016D000656028002921605428002A2160542800D0
:1016E0002B21605428002C21605428002D216054A7
:1016F00028002E21605425633800C0B2F2BD00B529
:101700000200106B800701D5802004E001200871E1
:101710002B23D054002000BD00B50200106B8007C1
:1017200001D5802005E00020087101202B23D05432
:10173000002000BDF7B50400002C01D1822098E004
:101740006846007A002805D168460079002801D152
:1017500082208EE068460079022801D1822088E04C
:101760000227206B3840002801D0012081E00026AC
:10177000266368460079292160546846007A2A2148
:101780006054200000F034F9206BC00601D5002021
:101790006FE030002E216054200000F0F5F90500C4
:1017A0002800C0B2002802D02800C0B261E02B207F
:1017B000205C002809D12D20205C002805D12C2098
:1017C000205C2D21615C88421FD0E0692C21615C86
:1017D0000C2251434018009000992000FEF72EFF84
:1017E00005002800C0B2012802D12800C0B240E0A4
:1017F0002800C0B2002806D0206B082101432163D5
:101800002800C0B235E02B202654206B38432063DB
:101810002000FEF7B9FF06003000C0B200280AD051
:10182000206B022188432063206B08210143216340
:101830003000C0B21DE02920205C002818D100250E
:10184000ED432800451E002806D0206B38400028B4
:1018500002D0FFF7A1FAF4E7002D05D1D821C8483E
:10186000FFF7BFFE812004E0206B01218843206345
:101870000020FEBD10B50400002C01D182200AE03A
:10188000206B800706D52000FFF7ACF8206B022103
:1018900088432063002010BD30B50B689B79102B66
:1018A00005D10B681B6801245B8B9C40A21A2E2378
:1018B000C35C032B04D2140002255D434D19AC8395
:1018C00030BD70B504002E20205C401C2E216054D9
:1018D0002E20205C03281FD2200000F055F90500BF
:1018E0002800C0B2002807D0206B02218843206363
:1018F000206B0821014321632000FEF745FF010012
:10190000C9B2002973D0216B022291432163216B5C
:1019100008220A4322636AE0002528002E21605431
:10192000200000F073F80600206BC00604D5206B81
:101930000221884320635AE03000C0B2002817D14A
:101940000120216B0140002903D0216B04220A43AE
:101950002263216B084320632A20205C002807D0E3
:101960002000FFF787FF2D20205C2C2160543EE0F3
:101970002E202554200000F007F905002800C0B2F1
:10198000002808D0206B022188432063206B0821A7
:10199000014321632BE02C20205C2D21615C8842D7
:1019A00016D0E0692C21615C0C22514341182000C3
:1019B000FEF744FE05002800C0B2002808D0206BC6
:1019C000022188432063206B0821014321630EE03C
:1019D0002000FEF7D9FE0100C9B2002907D0216B13
:1019E000022291432163216B08220A43226370BDC6
:1019F00038B504002C20255C2020205C2C2160546C
:101A0000200000F003F82D20255431BDF1B582B03F
:101A100002982C21405C6946487068464178491C10
:101A2000012002006B469A7000226B461A706A46CB
:101A30005278029B20241B5D9A4205D300226B46FC
:101A40009A70002211000BE00A00029B20241B5D0B
:101A5000D2B29A4204D302006B461A7000221100DF
:101A6000029AD2690B00DBB20C246343D2180192B4
:101A700000221300019CA478002C18D1019CA468BA
:101A80001500019E3688B54236D23E4FBC462788A7
:101A900004267E436746BE59366836683679012E7D
:101AA00002D10600330027E06D1CA41CE9E7019C6D
:101AB000A478012C0ED1334C019DAD682D880426ED
:101AC0006E43A459246824682479002C14D004009F
:101AD000230011E0019CA478022C0DD1294C019D1A
:101AE000AD682D8804266E43A4592468246824799F
:101AF000002C01D0040023001C00E4B2002C1CD1F7
:101B0000491C0C006D466D78E4B2AC4209D10A0064
:101B1000029C2025645DD2B2A24201D36A461070B5
:101B20000BE00C00029D2026AD5DE4B2AC4297D3E1
:101B300004006D462C70110092E708006A46527846
:101B4000C0B290420DD168468078002809D1029831
:101B50002022805C01000298006B10220243029850
:101B6000026302982C22805C029A2D23D0540298A2
:101B70002C2281546846027801205040C0B2FEBD3C
:101B8000987F00006065000038B50400E0692C21F2
:101B9000615C0C2251434518A878002802D0A8782F
:101BA000012809D1A0682E21615C102251434118FF
:101BB0002000FEF7CBFB0FE0A87802280BD1A0682D
:101BC0002E21615C10225143401801003031200069
:101BD000FEF7BCFB00E08320C0B232BDF446002813
:101BE00004D4494200F013F84042604740420029C3
:101BF00005D45FD000F00BF84042494260474942AB
:101C000000F005F84942604703460B43E6D4002242
:101C1000030A8B420BD203098B4219D243088B4231
:101C20002ED2411A00D20146524110467047FF227F
:101C300009023FD012068B4205D3121209028B42D1
:101C400001D31212090203098B4219D300E0090AD9
:101C5000C3098B4201D3CB01C01A524183098B4285
:101C600001D38B01C01A524143098B4201D34B016E
:101C7000C01A524103098B4201D30B01C01A5241D1
:101C8000C3088B4201D3CB00C01A524183088B4258
:101C900001D38B00C01A524143088B4201D34B0041
:101CA000C01A5241884200D3401A5241CFD2014655
:101CB0001046704708B500F04FF808BD30B44343F4
:101CC00051435D18010C0C00130C5C432D1980B2BC
:101CD000434392B251430024C918644124040B04C5
:101CE000090C09195043C018694130BC70471242B1
:101CF00024D0994228D970B500251B4202D00C008F
:101D0000002109E00024012649186441944200D3CF
:101D1000A41A7641F8D33100012601E0764109D2B8
:101D2000001864416D41A41A9D41F7D2A4185D4189
:101D3000B619F5D3300022002B0070BD1B42D8D15C
:101D400008B500F00BF808BD01D19042D3D20200D3
:101D50000B000021002070477047FEE77047FEE748
:101D600042698BB213434361704782698BB213435C
:101D70008361704770B504003D20205C012801D1CB
:101D8000002033E03D20205C002802D0200000F03D
:101D90002EF8200000F05CFE200000F03DFF606B9C
:101DA000FFF722FC06003000C0B2002802D030004D
:101DB000C0B21BE0200000F077FF05002800C0B291
:101DC000002802D02800C0B210E0206C046000207F
:101DD000216C4860216C8860E068002802D02000F7
:101DE000E168884701203D216054002070BDF8B5AE
:101DF0000400200000F041F82078C0B2832807D00A
:101E00000C2500262700320029003800FFF7C2FB0E
:101E1000606BFFF736FC2069002802D020002169A2
:101E200088470020F2BD38B504003D20205C03281F
:101E300005D03D20205C012801D083201CE03D20FE
:101E4000205C022801D1002016E001220121606BF4
:101E5000FFF770FC05002800C0B2002802D028005F
:101E6000C0B209E002203D2160546069002802D020
:101E7000200061698847002032BD38B504003D204C
:101E8000205C022801D083201AE03D20205C03283A
:101E900001D1002014E0606BFFF7ECFC0500280086
:101EA000C0B2002802D02800C0B209E003203D21C2
:101EB0006054A069002802D02000A1698847002052
:101EC00032BD38B504003D20205C032801D08320BA
:101ED0001CE03D20205C022801D1002016E00122F8
:101EE0000121606BFFF726FC05002800C0B2002826
:101EF00002D02800C0B209E002203D216054606990
:101F0000002802D0200061698847002032BDFEB55C
:101F100005000C00686BC0690190686B2021475C6C
:101F200020796946087001262671206800781028FB
:101F300004D22100280000F0D1FB0AE020680078DC
:101F4000102804D32100280000F0B2FC01E080201A
:101F50000CE069460978217101996A6BD161696B5E
:101F600020228F54696B2B228E54C0B2FEBDF8B56F
:101F70000600B46B00253C20305C85420ED22168FF
:101F80003000FFF7C4FF07003800C0B2002802D0BD
:101F90003800C0B203E06D1C241DECE70020F2BD48
:101FA00038B504003D20205C022800D08FE0606B33
:101FB000006BC00771D5200001F033FD4748017E5A
:101FC000012905D1802189004548FFF7CEFE56E062
:101FD0005021415C012905D18021C9004048FFF70B
:101FE000C4FE4CE08821415C012904D104213D4814
:101FF000FFF7BBFE43E0C021415C012905D18021F0
:1020000089003748FFF7B1FE39E0F821415C01292A
:1020100005D1802189003248FFF7A7FE2FE09821E3
:102020004900415C012905D1802189002C48FFF736
:102030009CFE24E0B4214900415C012905D18021A6
:1020400089002748FFF791FE19E0D0214900405C44
:10205000012805D1802189002148FFF786FE0EE086
:102060001F4D802189002800FFF77AFE8021C900DA
:102070002800FFF775FE04211A48FFF771FE606B18
:10208000006B01218843616B0863200002F094FD1E
:1020900001220121606BFFF74DFB606B006B400775
:1020A00008D5200002F02CFE606B006B04218843F1
:1020B000616B0863606B006B000708D5200002F0BD
:1020C00020FE606B006B08218843616B0863206C05
:1020D00002F0AAFE200000F00DF831BD84010020BE
:1020E000C00C0040800D004010B50400206C02F0D0
:1020F000B0FE10BDF8B584B0060003253068800935
:102100002F00074030788006800E6946887130685D
:10211000000A00023168090CC9B2014368464180D7
:10212000F07869460871002420006946087038007C
:10213000C0B2012800D0A9E26846807900283AD0D0
:1021400001283FD0022844D0032848D0042849D091
:1021500005286CD0102800D18EE0112800D1A1E014
:10216000122800D1AEE0132800D1BCE0142800D121
:10217000E6E0202800D1E9E0212800D102E1222870
:1021800000D10CE1232800D125E1242800D12FE142
:10219000252800D142E1262800D146E1302800D18F
:1021A0004EE1312800D195E1322800D1F4E1332805
:1021B00000D137E25BE23000FFF783FE694608702A
:1021C000270055E23000FFF758FE694608702700E7
:1021D0004EE23D20305C69460870270048E202204C
:1021E000070045E23000FFF748FE69464870684640
:1021F0004078002805D06846407869460870270076
:1022000036E2300000F050FD69464870684640787C
:10221000002805D06846407869460870270027E204
:102220003000FFF74EFE69460870270020E23000BC
:10223000FFF723FE6946487068464078002805D0BD
:102240006846407869460870270011E23000FFF7C1
:102250008EFE6946487068464078002805D068467A
:10226000407869460870270002E23000FFF729FE37
:10227000694608702700FBE1711D094801226B4681
:102280001A70020E0A70491C0200120C0A70491CD6
:10229000020A0A70491C02000A702700E8E100BF28
:1022A0002C680000711DB06B020E0A70491C020000
:1022B000120C0A70491C020A0A70491C02000A70BA
:1022C0002700D5E1711D706B406A020E0A70491C2F
:1022D0000200120C0A70491C020A0A70491C020012
:1022E0000A702700C4E13D20305C022801D12F0094
:1022F000BEE168464088002808D101220021706BA9
:10230000FFF718FA69460870270018E06846408809
:1023100001280AD1684602790121706BFFF70AFA99
:10232000694608700220070009E0684640880228D4
:1023300005D1706BFFF79EFA69460870270097E198
:10234000706B006B69460870270091E13D20305C9E
:10235000022801D12F008BE1684640883C21715C46
:1023600089B2884201D32F0082E1B06B6946498867
:1023700004224A438158300001F02AFB6946087064
:10238000270075E13D20305C022801D12F006FE16C
:10239000300001F004FB69460870270068E13D2029
:1023A000305C022801D12F0062E1684640883C2160
:1023B000715C89B2884201D32F0059E1B06B694644
:1023C000498804224A438158300001F022FB6946C3
:1023D000087027004CE13D20305C022801D12F001D
:1023E00046E1300001F0FCFA6946087027003FE141
:1023F000684640883C21715C89B2884201D32F0035
:1024000036E1B06B6946498804224A43815830005E
:1024100001F057FA69460870270029E1300001F001
:1024200037FA69460870270022E13D20305C022817
:1024300001D12F001CE1300001F0F3FA270017E171
:102440003D20305C022801D12F0011E16846408810
:102450003C21715C89B2884201D32F0008E1B06B46
:102460006946498804224A438058029002980068CD
:102470000078102813D20F20694609790200114212
:1024800003D069460979084005002A00D2B20299B2
:10249000300000F039FC69460870270019E0029806
:1024A00000680078102813D32500684600790009D9
:1024B000002803D068460079000905002A00D2B23E
:1024C0000299300000F050FD69460870270000E0D6
:1024D0002F00CDE0200007003D20305C022801D114
:1024E0002F00C5E0B06B0290039403983C21715C0F
:1024F000884250D2029800680068007810281CD2E8
:102500002800694648710F20694649880200114237
:1025100004D069464988084069464871684642794E
:1025200002980168300000F0EFFB694608706846C9
:102530000078002828D02F002DE00298006800685D
:10254000007810281ED32000694648710F20694684
:10255000498809090140002905D0694649880909C7
:10256000084069464871684642790298016830001F
:1025700000F0FAFC6946087068460078002803D02D
:102580002F0008E02F0006E00398401C03900298FB
:10259000001D0290A9E76BE0701D0390684640881B
:1025A000716B2822895C89B2884201D32F005FE0D9
:1025B000706B406A6946498804224A4380580290F9
:1025C00002980068807900280DD1684600790028BB
:1025D00001D0012200E02200D2B20299706B806823
:1025E00002F092FB0EE0029800688079102807D173
:1025F00001220299706B8068303002F0D5FB01E057
:102600002F0035E0010E039A11700399491C020056
:10261000120C0A70491C020A0A70491C02000A7056
:10262000270025E0706B456A0294029808281CD2A6
:10263000286800688079002806D101222968706B1B
:10264000806802F061FB0BE0286800688079102840
:1026500006D101222968706B8068303002F0A4FB3B
:102660000298401C02902D1DDFE7270000E02F009C
:102670003068C02188433900C9B28901C0220A40AC
:102680000243326068460078307125E03800C0B2FD
:10269000022821D168468079032802D0132807D068
:1026A0000CE03000FFF766FB69460870270006E083
:1026B000706B006BC00700D5270000E02F0030686A
:1026C000C02188433900C9B28901C0220A400243AF
:1026D000326068460078307105B0F0BDF3B589B05E
:1026E00006A80021002206C008380A98019001209F
:1026F0000199087101980068C06800280ED16A48E5
:102700000999496BC86101200999496B20228854B5
:1027100001980068007A694648800DE001980068D9
:10272000C0680999496BC86101200999496B202249
:102730008854012069464880019800684668002056
:102740000490049869464988884200D39CE00020A0
:102750000290012528006946087030688088534936
:1027600008803068006A05900598002804D0059814
:1027700040684D49486002E000204B494860099894
:10278000C06A002812D002AB320001990998099F53
:10279000FF6AB8476946087068460078002802D08A
:1027A0000298002802D12800694608700020039092
:1027B000039869460978884230DA28000999496BFC
:1027C0002B228854012200210998406BFEF7B2FFAA
:1027D0006946487068464078002802D068464078CC
:1027E0005FE0300002F05DFB68460078022811D3FC
:1027F00003980321484300210C00032C0AD2022134
:10280000614371180989029A031902277B43D15247
:10281000641CF2E70398401C0390C9E768460078FF
:1028200002282CD30998006B002807D006AB320091
:1028300001990998099F3F6BB84713E068460078F3
:10284000401E0321484300210D00032D0AD20299A6
:10285000421902235A43895A06AA02236B43D152D2
:102860006D1CF2E70020032809D206A90222424388
:10287000895A02224243B2189183401CF3E704981C
:10288000401C049038365CE70199099801F019F86A
:1028900001000800C0B2002802D00800C0B200E069
:1028A00000200BB0F0BD0000480500204C0B0020BC
:1028B000F3B587B003A80021002206C00838002025
:1028C00002900120694608700898019001980068FC
:1028D000C0680799496BC86101200799496B20229C
:1028E00088540798C06A002812D002AB00220199D0
:1028F0000798079CE46AA047694608706846007814
:10290000002802D00298002802D1012069460870F0
:10291000002468460078844244DA01980068007A0E
:10292000604303214843069001200799496B2B22FD
:102930008854012200210798406BFEF7FBFE694690
:10294000487068464078002802D0684640787DE0AC
:10295000019800684768002601980068007A86425E
:102960001ED2380002F09DFA68460078022814D37F
:102970000698032171434018059000200500032D9F
:102980000BD202206843381800890299059A52191F
:1029900002235A4388526D1CF1E7761C3837DBE777
:1029A000641CB6E768460078022842D3684600787F
:1029B000401E01990968097A48430321484305905C
:1029C000019800684668002501980068007A8542F1
:1029D0002FD20798006B002807D003AB3200019973
:1029E0000798079F3F6BB84712E00598032169439A
:1029F000401800210C00032C0AD20299021902236C
:102A00005A43895A03AA02236343D152641CF2E752
:102A100000200400032C09D203A802216143405A7C
:102A20000221614371188883641CF3E76D1C3836FA
:102A3000CAE70199079800F044FF01000800C0B2FE
:102A4000002802D00800C0B200E0002009B0F0BDAC
:102A5000F1B586B006981649884226D134200490F4
:102A600014480390144C049A0399200002F0B2FA1F
:102A7000A0204000029011480190114C029A019947
:102A8000200002F0A7FAE020400000900D4C0E4D0F
:102A9000009A2100280002F09DFA60250B4E0C4F91
:102AA0002A003100380002F095FA07B0F0BD00BFEF
:102AB0000000002060670000440300204062000026
:102AC000440000208063000084010020946700001F
:102AD0008404002038B50400694D6A4885420CD250
:102AE0002868002807D028680068002803D0200044
:102AF0002968096888472D1DEFE731BD38B5040006
:102B00005F4D604885420CD22868002807D02868AD
:102B10004068002803D020002968496888472D1D97
:102B2000EFE731BD38B50400554D564885420CD20B
:102B30002868002807D028688068002803D0200073
:102B40002968896888472D1DEFE731BD38B5040035
:102B50004B4D4C4885420CD22868002807D0286885
:102B6000C068002803D020002968C96888472D1D47
:102B7000EFE731BD70B506000C00414D414885427C
:102B80000DD22868002808D028680069002804D0E1
:102B9000210030002A68126990472D1DEEE770BDB4
:102BA00038B50400364D374885420CD228680028D5
:102BB00007D028684069002803D0200029684969A7
:102BC00088472D1DEFE731BD38B504002C4D2D4849
:102BD00085420CD22868002807D028688069002820
:102BE00003D020002968896988472D1DEFE731BD92
:102BF00038B50400224D234885420CD228680028AD
:102C000007D02868C069002803D020002968C96956
:102C100088472D1DEFE731BD10B51B49C1601B4929
:102C200001611B4941611B4981611B49C1611B490C
:102C300001621B4941621B49816211490A00114B23
:102C40009A420CD21468002C07D01468246A002C15
:102C500003D01468246AC46201E0121DEFE79942B0
:102C60000CD20A68002A07D00A68526A002A03D0E8
:102C70000A68526A026301E0091DF0E710BD000016
:102C8000B0680000C0680000D52A0000FD2A0000DE
:102C9000252B00004D2B0000752B0000A12B000000
:102CA000C92B0000F12B0000F8B50600B46B00251D
:102CB0003C20305C854225D22068006800781028CE
:102CC0000CD203222168300000F01EF80700380003
:102CD000C0B2002813D03800C0B214E020680068E9
:102CE000007810280BD321683000FFF710F9070097
:102CF0003800C0B2002802D03800C0B203E06D1C1A
:102D0000241DD5E70020F2BDF7B58CB00D980190D9
:102D10000C98406B03900EA80078012800D0D9E0F1
:102D200003988068FDF7C4FF029002988749FEF778
:102D30006EFF0500280080B2022802D202200500A2
:102D400002E0E80700D56D1C00242600032E08D2FF
:102D500003988068102171434018FEF70EF8761C26
:102D6000F4E70C200199087702987949FEF74FFFA4
:102D70000199C8830198C08B290089B2884201D289
:102D80000198C58319220D990C9800F013F90700DA
:102D90003800C0B2002802D03800C0B2D3E0200012
:102DA000694648700D980068406804900D98006866
:102DB00040680D990968097A8C420BD269464978B6
:102DC0000279914203D201796A4651700490641CE1
:102DD0003830EEE7002204990398806801F094FFF0
:102DE0000A905CA003C80A9A5C4B5A430023FEF782
:102DF0007EFF09900124200080B280214901884291
:102E000008D20998210089B248430299884201D228
:102E10006400F0E72000290080B289B2884200D225
:102E20002C000198C48319220D990C9800F0C2F867
:102E30006946087068460078002802D06846007825
:102E400081E00D990C9800F010FB0198C08B694649
:102E5000488002214348FDF75FFF0890404F022160
:102E60003800FDF759FF0790089800216A465288FC
:102E70000023FEF723FF802252000023FEF71EFFEF
:102E8000079A0023FEF733FF8030000A0199C883B8
:102E90006020069033480590069A0599380002F0A4
:102EA00099F80198C08B6946498888420DD019224B
:102EB0000D990C9800F07EF8694608706846007815
:102EC000002802D0684600783DE00D990C98FFF785
:102ED0001EF837E00EA80078022816D119220D99A5
:102EE0000C9800F067F804002000C0B2002802D05F
:102EF0002000C0B227E00D990C98FFF708F80100F8
:102F0000C9B200291ED0C0B21DE00EA80078032867
:102F100016D119220D990C9800F0F2FA0400200045
:102F2000C0B2002802D02000C0B20CE00D990C986D
:102F3000FEF7EDFF0100C9B2002903D0C0B202E0E4
:102F4000832000E000200FB0F0BD0000808D5B000A
:102F500060E3160000407A10F35A0000C409000034
:102F60008404002094670000FEB506000C001700E2
:102F70000194706B00903800C0B2012818D1322241
:102F80002100300000F0B0FB05002800C0B200288E
:102F900002D02800C0B20CE021003000FEF7B7FFDD
:102FA0000100C9B2002901D0C0B202E0002000E057
:102FB0008320FEBDF8B504000D0016002F003D2053
:102FC000205C032805D03D20205C002801D0832010
:102FD00020E005206946087068460078B8766846A3
:102FE0000078F8763200D2B22900200000F013F801
:102FF0006A462900200000F03AF9694648706846A0
:1030000040780028E8D13200D2B22900200000F038
:1030100099F90020F2BDF7B58AB00B98079000200F
:10302000694608700A983D21405C032806D00A983A
:103030003D21405C002801D0832016E10B980079E7
:10304000694608720A98406BC06908900A98406BFC
:103050002021405C6946487001200B9908710024CA
:10306000032C04D2002006A90855641CF8E70CA81C
:1030700005780798007FFDF785FE45432800642109
:10308000FEF7C5FD694648810B980068C0680028B6
:103090000ED1AA480A99496BC86101200A99496B67
:1030A000202288540B980068007A694648800DE019
:1030B0000B980068C0680A99496BC86101200A9999
:1030C000496B202288540120694648800B9800688B
:1030D000406801900020049004986946498888421D
:1030E00000D37FE040260798050020350198001D99
:1030F00003900020032803D200212954401CF9E743
:103100000199096889888E4A118001990968096ABC
:1031100005910599002904D005994968874A5160AD
:1031200002E00021854A51603100C9B200293ED039
:1031300000273C00032C07D2285D30432855285D2A
:1031400003990855641CF5E701200A99496B2B2265
:103150008854012200210A98406BFEF7EBFA694679
:1031600008706846007800286AD1019801F099FE3D
:10317000380003280DD20199022242438918098997
:103180006A465289914202D2295CB1432954401CBB
:10319000EFE7F6B276083100C9B20029C4D1380091
:1031A0000328C1D2295C039A1154401CF8E700247B
:1031B000032C10D2285D002804D101202855285D59
:1031C0000399085506A8015D2A5D914201D2295D47
:1031D0000155641CECE70498401C049001983830B9
:1031E000019079E768460078002829D100252C0055
:1031F000032C07D206A8005D0799091920228854DC
:10320000641CF5E701200A99496B2B22885401229E
:1032100000210A98406BFEF78DFA694608706846EF
:10322000007800280CD10B980068466868464088F2
:10323000854205D2300001F034FE6D1C3836F5E7CA
:103240006846007A0B99087108980A99496BC86119
:10325000684640780A99496B2022885401200A99CF
:10326000496B2B228854684600780DB0F0BDF7B545
:1032700081B002980090002006007F240500032DF5
:103280001BD23100009A52192023D25CC9B291425C
:1032900004D2009949192022895C0E00009949192D
:1032A0002022895C2200D2B2914204D200994919AD
:1032B0002022895C0C006D1CE1E7029909684968CD
:1032C0000200029B1B681B7A9A4210D20500032D54
:1032D0000AD24B191B792700FFB2BB4202D24B190D
:1032E0001B791C006D1CF2E7521C3831E9E703988A
:1032F000007800281FD02000C0B214281BD27F49BC
:1033000003980078042250430858039A1278042343
:103310005A438918091F0968FEF779FC010030003B
:10332000C0B248437F2806D203980078401E039A13
:103330001070012000E0002004B0F0BD5405002012
:103340004E0B0020F7B588B00998059009980068E1
:10335000C068002800D086E009980068007A02283A
:1033600000D280E00598007FFDF70CFD0690002458
:10337000032C78D2059800192021405C0490049811
:103380000390002502950998006840682900099A71
:103390001268127A914217D2002905D102226243A3
:1033A0008218128902920CE002191279039B9A4248
:1033B00007D20219127903920222624382181289FB
:1033C0000292491C3830E2E7039806000298642113
:1033D00048430699FEF71BFC010064313000484366
:1033E0000AA90978FEF713FC019004980199884214
:1033F00001D2049801900198059909192022885456
:103400000998006846682F0009980068007A87428A
:1034100027D23019007900900220604330180189CA
:10342000642048430699FEF7F2FB010064310098DE
:10343000484301990AAA12785143884203D22900CD
:10344000321911710AE001990AAA12785143401AFF
:1034500032306421FEF7DBFB311908717F1C3836EE
:10346000D2E7641C84E70BB0F0BDFEB507000E0088
:1034700002960298C18B786B8068FDF74DFC0400C2
:1034800002982021455C1D480299897E04225143FF
:103490004058454320000021FA2292000023FEF705
:1034A0000DFCFA2292000023FEF721FC02000B0023
:1034B000009201930298008B00212A000023FEF75E
:1034C000FDFBFA2292000023FEF7F8FB009A019B15
:1034D000FEF70DFC64220023FEF709FC10210A0010
:1034E000D2B2092A09D301228A40521E904202D345
:1034F000029A117701E0491EF1E7F7BDA4820000AE
:10350000F7B588B0099806900020694608700898B9
:103510003D21405C032806D008983D21405C0028EE
:1035200001D08320D9E0099800796946087208988B
:10353000406BC06905900898406B2021405C69464B
:1035400048700120099908710AA805780698007F3B
:10355000FDF718FC454328006421FEF758FB694637
:10356000488109980068C06800280ED15C48089915
:10357000496BC86101200899496B20228854099839
:103580000068007A694648800DE009980068C068C4
:103590000899496BC86101200899496B2022885419
:1035A0000120694648800998006840680190002021
:1035B000039003986946498888425AD24025019869
:1035C000071D00200400032C03D200203855641C82
:1035D000F9E70198006880884249088001980068EE
:1035E000006A04900498002804D0049840683C497C
:1035F000486002E000203A4948602800C0B2002834
:1036000030D000263400032C04D2385D28433855CE
:10361000641CF8E701200899496B2B228854012289
:1036200000210898406BFEF785F8694608706846E7
:10363000007800283CD1019801F033FC3400032CC1
:103640000DD20198022161434018008969464989D9
:10365000884202D2385DA8433855641CEFE7EDB2CA
:103660006D08CAE70398401C039001983830019018
:103670009FE701200899496B2B22885401220021E1
:103680000898406BFEF756F869460870684600785F
:1036900000280DD1099800684568002668464088D2
:1036A000864205D2280001F0FCFB761C3835F5E790
:1036B0006846007A0999087105980899496BC861AC
:1036C000684640780899496B20228854012008995F
:1036D000496B2B228854684600780BB0F0BD00007F
:1036E000540500204E0B0020F7B586B007980190D6
:1036F0000698406B806830300290402400273800E4
:103700006946087006983D21405C032806D006985B
:103710003D21405C002801D08320B6E00798007965
:103720006946C8700698406BC06903900698406B64
:103730002021405C69468870012007990871019832
:10374000828B0198418B0298FDF721FB059005982B
:1037500008A9097848436421FEF759FA04900798AC
:103760000068C0680699496BC86101200699496BD9
:10377000202288540798006840683900079A126828
:10378000127A914209D23A00032A03D283181C719B
:10379000521CF9E7491C3830F0E72000C0B200287D
:1037A0003FD02000C0B24008694648700120069909
:1037B000496B2B228854012200210698406BFDF7AB
:1037C000B9FF6946087068460078002848D1079814
:1037D000006845683E0007980068007A86421DD25E
:1037E000280001F05EFB3800032814D2049902225D
:1037F0004243AA181289914204D229180979A14397
:103800002A181171291809796A4652780A43291829
:103810000A71401CE8E7761C3835DCE7E4B264083E
:10382000BBE701200699496B2B2288540122002115
:103830000698406BFDF77EFF694608706846007881
:1038400000280DD107980068456807980068007A3D
:10385000874205D2280001F024FB7F1C3835F4E7AD
:103860006846C0780799087103980699496BC86142
:10387000684680780699496B202288540120069971
:10388000496B2B2288546846007809B0F0BDFEE7EA
:10389000F8B50600B46B00253C20305C85420ED2A2
:1038A0002168300000F00DF807003800C0B2002891
:1038B00002D03800C0B203E06D1C241DECE70020EC
:1038C000F2BDF1B584B00E00B01D029030680078F2
:1038D0006946087030680078102805D23068C068E2
:1038E000002801D0012701E03068077A3068446879
:1038F0000025380080B285420ED22068C068019051
:103900000198002801D1029801900199200000F04F
:10391000C4F86D1C3834ECE73068007810281FD2EA
:1039200068460078002806D0022808D013D304285F
:103930000DD008D313E0300000F082F923E030000E
:1039400000F086F91FE0300000F09BF91BE030002A
:1039500000F0AFF917E0300000F076F913E012E064
:103960003068007810280ED368460078102802D0FE
:10397000112804D007E0300000F0BAF903E030006D
:1039800000F0BAF9FFE70498C069002804D03100BC
:103990000498049AD2699047002005B0F0BDF8B5AC
:1039A0000600B46B00253C20305C85420ED22168B5
:1039B000300000F00DF807003800C0B2002802D037
:1039C0003800C0B203E06D1C241DECE70020F2BDFE
:1039D00038B505000C002100686BFDF790FE32BD84
:1039E000F8B50600B46B00253C20305C85420ED251
:1039F0002168300000F00DF807003800C0B2002840
:103A000002D03800C0B203E06D1C241DECE700209A
:103A1000F2BD38B505000C002100686BFDF77CFE97
:103A200032BDF8B50400206A002802D02000216AC7
:103A30008847A56B00273E003C20205C86420AD2C6
:103A400028680079012803D12968200000F051F886
:103A5000761C2D1DF0E7606A002802D02000616A04
:103A60008847A56B3E003C20205C86420ED2286829
:103A70000079012807D12968200000F065F829683D
:103A8000200000F0A2F8761C2D1DECE7A06A0028AB
:103A900002D02000A16A8847F1BDF8B504000D00EE
:103AA000200001F0D9F92900200000F00EF80020D4
:103AB00020762068007E00906E7A2068C769320008
:103AC00000993800FDF766FDF1BD38B505000C0022
:103AD0002100280000F012FB31BD38B505000C00B4
:103AE0002100280000F02BFB2100280000F07AFBC9
:103AF00031BDF1B582B00E00B01D01903068007884
:103B0000102805D23068C068002801D0012701E0E4
:103B10003068077A306844680025380080B28542F2
:103B200011D22068C06800900098002801D1019847
:103B30000090200001F0C4F900992000FFF7CDFFAC
:103B40006D1C3834E9E7F7BDF1B582B00E00B01D49
:103B50000190002528006946087030680078102818
:103B600007D23068C068002803D001206946488029
:103B700003E03068007A69464880306844686846E7
:103B8000408885421DD22068C768002F01D1019866
:103B9000070001223900200000F05BFA306800784D
:103BA000012804D102223900200000F052FA01203D
:103BB000217E0140002901D0694608706D1C38340F
:103BC000DDE7684600783075F7BD38B505000C00B4
:103BD0002068007810281FD220680078002806D0BE
:103BE00002280CD007D3042811D00CD313E02000F6
:103BF00000F09BF823E0200000F09BF81FE020007D
:103C000000F0B3F81BE0200000F0F5F817E020000A
:103C100000F03BF913E012E02068007810280ED382
:103C200020680078102802D0112804D007E0200076
:103C300000F0C5F903E0200000F0C5F9FFE731BD51
:103C4000002124228154704700212822815470478A
:103C5000F8B504002568FF2000022168097A491E92
:103C6000FDF7D5FFA062002025216054287C00903C
:103C70002420265C6F69320000993800FDF78AFC29
:103C8000F1BDF8B504002568FF2000022168097A1B
:103C9000FDF7BDFFA062002025216054287C009024
:103CA0002420265C6F69320000993800FDF772FC11
:103CB000F1BDF8B504002568FF2636023000297AE8
:103CC000491EFDF7A4FFE0623000297E491EFDF782
:103CD0009EFF206300202A216054287C009024202D
:103CE000265C6F69320000993800FDF753FCF1BD86
:103CF0000021202281547047F8B504002568FF2078
:103D000000022168097A491EFDF781FF60620020E8
:103D100021216054287C00902020265C6F693200AD
:103D200000993800FDF736FCF1BD017D2422815455
:103D3000704730B50168027D012A03D10222282391
:103D4000C25411E04A68002423000D7AAB4209D224
:103D5000157EAD0703D501242825445504E05B1CDE
:103D60003832F2E72822845430BDFEB505000095B4
:103D7000009806682420285C022804D20098007D60
:103D80002521685417E070690099097D00290CD03D
:103D90000178002902D00178491E017001780029BC
:103DA00009D101212522A95405E02421695C017073
:103DB00000212522A9542520285C01281AD1317A16
:103DC000706800F02CFA0700002F13D0AA6A317A2D
:103DD00001A800F0B7FA00200400BC420AD2002C6F
:103DE00008D101A80421614340582919262288548A
:103DF000641CF2E7F7BDFEB5050000950098006869
:103E000002902420285C022804D20098007D2521FD
:103E1000685418E0029840690099097D00290CD087
:103E20000178002902D00178491E0170017800292B
:103E300009D101212522A95405E02421695C0170E2
:103E400000212522A9542520285C01281CD1009896
:103E50000768397A786800F0E2F90600002E13D07E
:103E6000AA6A397A01A800F0A8FA00200400B44236
:103E70000AD2002C08D101A8042161434058291915
:103E800026228854641CF2E7F7BDF8B586B0060018
:103E90000396039804680594002001006A46517057
:103EA00001006A4611700100227A91420CDA6268C0
:103EB00038234B43D218127E012A03D101226B46CC
:103EC0005A7001E0491CEFE705000599097E8D4213
:103ED0000EDA6168227AAA1838235A438918097EB3
:103EE000012903D101216A46117001E06D1CECE744
:103EF000694649786A4612780A4003990A7524216E
:103F0000715C022904D20398007D2A21705418E0C4
:103F1000039909684969039A127D002A0CD0087830
:103F2000002802D00878401E08700878002808D1C0
:103F300001202A22B05404E02422B25C0A702A2212
:103F4000B0542A20305C002837D0217A606800F015
:103F500066F90490049801282FD1F26A217A01A809
:103F600000F0F0F980277F000198B84201D3FF20CC
:103F70000190019869460881217E6068227A382381
:103F80005A43801800F04BF904900498012814D18A
:103F9000326B217A01A800F0D5F90198B84201D31B
:103FA000FF200190019869464880684600892821D1
:103FB0007054684640882921705407B0F0BD017DD7
:103FC000202281547047FEB50500009500980668D0
:103FD0002020285C022804D20098007D212168540A
:103FE00017E070690099097D00290CD0017800293B
:103FF00002D00178491E01700178002909D1012100
:104000002122A95405E02021695C017000212122B0
:10401000A9542120285C01281AD1317A706800F057
:10402000FEF80700002F13D06A6A317A01A800F069
:1040300089F900200400BC420AD2002C08D101A852
:10404000042161434058291922228854641CF2E754
:10405000F7BDF3B5016809681300DBB2012B02D08C
:10406000022B07D00CE0019B1D88019B5B88046834
:10407000E46906E08D8CCB8C0468E469641C00E084
:104080003BE0067E1700FFB23740002F04D11E0030
:10409000B6B2AD19009503E01E00B6B2AD1B009597
:1040A000009D4669B54201DA150000E000252F00A9
:1040B000FFB2BC46077E1600F6B23E406746B742E6
:1040C0000FD02678002E0CD02678761E2670267803
:1040D000002E12D1067E96430676067E2E43067685
:1040E0000BE0067E1700FFB23740002F02D1019E81
:1040F000767A01E0019EB67A2670F3BDF8B5040029
:104100000F0000263500032D18D202206843201826
:104110000089022169436118C88130000221694386
:10412000611808860220684320180189042068432A
:104130002018243000F023FF6D1CE4E7F1BDFEB52C
:1041400005000F002868006801900024032C48D265
:104150000220604328180089022161436918C98937
:10416000461A002E04D400200221614369180886F3
:104170000198808941428E4216DA02206043281855
:10418000008E0199498A884204D339002800FFF73C
:10419000B5FF24E0022060432818008E401C022155
:1041A0006143691808861AE0B888B04217DBF888BE
:1041B00041428E4213DB0220604328180089694681
:1041C00008806A46397A042060432818243000F0B9
:1041D000DBFE68460088022161436918C881641CBF
:1041E000B4E7F7BD30B50289C389D21A4389048A7E
:1041F0001B1B8489458A641BA34202DA1D0023002D
:104200002C009A4203DAA24202DA220000E01A00ED
:10421000002545618D88954200DA426130BDF2B5D6
:1042200084B0010000207F4A030013707E4B04001D
:104230001C70049C022C00D281E00C682468A41D30
:104240000394039C2488039D6D88641B6D462C8118
:1042500004006D466C800C000500049EB54226D219
:104260002668F6680196019E002E04D16E463689B6
:104270006F463E8006E0019E3688019F7F88F61BD0
:104280006F463E806E4636886769BE420CDA6E46DF
:1042900076886769BE4207DA01261E702E00761CFA
:1042A000167066696F467E806D1C3834D5E71C78C1
:1042B000002C42D01C78A0423FDA08244443141951
:1042C00008254543555D2E00F6B238277E438E19EA
:1042D000243E3668A6802E00F6B2012E0DD1049E33
:1042E00038277E438E19243E36686680EDB2382624
:1042F00075434D196D69E5801DE02E00F6B2049FEF
:10430000BE420AD12E00F6B238277E438E195C3E9B
:10431000366866804E69E6800DE02E00F6B23827DA
:104320007E438E195C3E36686680EDB23826754352
:104330004D196D69E580401CBCE7187800E000204D
:1043400005B0F0BDF3B581B0140000252E0036484D
:1043500001788E422FDA33480821714347183878A4
:10436000012802D12800788005E038780299884237
:1043700001D12800F880F8887988401A604379884C
:10438000BA888918FA888918FDF73EFC3978491EE1
:104390006143401880214900FDF736FC00900098E9
:1043A000012801DB009800E02800019904227243F3
:1043B0008850761CCBE70078FEBDF7B500252E00AF
:1043C000194801788E422ADA1648082171434718A5
:1043D000F8887988401A029948437988BA888918F8
:1043E000FA888918FDF710FC3978491E029A514362
:1043F0004018002803D50199029A514340188021A2
:104400004900FDF701FC0400012C01DB200000E065
:1044100028000099042272438850761CD0E7007867
:10442000FEBD00003C0B0020610B002000B5010028
:1044300049B2002905D40121C206D20E9140954A05
:10444000116000BD00B5010049B2002905D4012169
:10445000C206D20E9140904A116000BDF0B5020034
:1044600052B2002A1CD40322634B040064B2A40895
:1044700004256C431C59FF251600064008277E437F
:10448000B540AC438D01EDB2024008267243954021
:104490002543020052B29208042462439D5022E058
:1044A0000F24904A032305006DB22540083DAD0856
:1044B00004267543060076B23440083CA40804265E
:1044C00074431659FF27BC461C00044008277C4350
:1044D0006746A740BE438C01E4B2034008277B43F4
:1044E0009C4034435451F0BD7F490A687F4B1340D0
:1044F00003430B6070477C490A687D4B13400343BC
:104500000B60704778490A6807239A4302430A60A0
:10451000704778490A68784B134003430B60704733
:1045200076490A68FF239A4302430A607047A2490A
:104530000A68A24B134002041A430A6070479E485F
:104540000068C1090800C007C00F70479A490A688F
:1045500070239A4302430A60704797490A6806230A
:104560009A4302430A6070479348016801220A4354
:1045700002607047904801680122914301607047D2
:10458000026803239A430A43026070478C49016022
:10459000704730B504000D00280080B22018401E7E
:1045A000290089B2FDF733FB30BDAA48016880229B
:1045B0000A430260A84801688022D2020A430260CE
:1045C000A6490A6880239B0013430B60026880237E
:1045D0005B031343036008688022D20002430A6031
:1045E0009F48016810220A4302609E480168042225
:1045F0000A4302607047000000E400E010B59548EF
:10460000016880220A43026097480168A022920153
:104610000A430260954801688022D2010A43026081
:1046200093480168802292010A4302600020914968
:104630000860914801683022914301600168C022FE
:1046400091430160016840220A4302600168BF4A49
:104650000A400260BE49BF4A1160BF498022520031
:104660000A6002230B60BD490C6823430B600B6892
:104670001A430A60016803220A4302600B20FFF715
:10468000E1FE01210B20FFF7E9FE0B20FFF7CEFE34
:1046900010BD000000E100E080E100E070B5020024
:1046A000AF4800231C0025000E00ADB2B6B2B542E3
:1046B00016D22500ADB2555D68401D002E00F6B241
:1046C000082E0BDAC60705D50600B6B27608A5484F
:1046D000704001E080B240086D1CEFE7641CE2E727
:1046E00080B270BD1CED00E000240040FFFFF8FF29
:1046F000FFF8FFFF04240040FFFFF0FF0824004004
:10470000F3B581B01600984F3878002801D000200A
:1047100050E03000C0B20D2801DB00204AE0934C8D
:10472000B2202070601C694609790170A6700025CE
:1047300029000A003300D2B2DBB29A4209D2029AAF
:104740000B00DBB2D25C0B00DBB2E318DA70491C61
:10475000EFE73100C9B2891C89B2FFF79FFF010062
:10476000080080B2000A3200D2B2A218D07008004D
:104770003200D2B2A21810713000401DAB4A107046
:10478000AB48057001223A70744A13686F4D1D40A2
:10479000156080235B00704D2B60136802251D435C
:1047A0001560027813005B1C0370D2B2A05CB94A9A
:1047B00010600120FEBD00000C240040FFFF00FC43
:1047C0005A5A341270B506000D0014002200D2B2FD
:1047D00029003000C0B2FFF793FF70BD7CB5060022
:1047E0000D00140068461121017046708570C47078
:1047F000042269460120FFF7E5FF76BDF8B50020E9
:10480000010002000300B94F3C78002C03D0022CB9
:1048100009D004D30BE0FF26050004000AE00600DF
:10482000FF25040006E006000500FF2402E0FF2447
:10483000260025003978491C39703978042900DBB5
:1048400038702200D2B22900C9B23000C0B2FFF7DE
:10485000C5FFF2BD34240040CC0C0040D40C004015
:104860008C0D0040940D00408C0C00404C24004006
:104870003C24004020A4014000A401401CB50020BD
:104880000400694630222300DBB2CA54641C2200B3
:10489000D2B28854641C2200D2B28854641C220014
:1048A000D2B28854641C2200D2B28854641C220004
:1048B000D2B28854641C2200D2B269460320FFF7AA
:1048C00081FF16BD3EB52848007800283DD1884CB0
:1048D00088482178455C2800C0B2012806D023D33F
:1048E000032812D005D3042812D01DE0FFF786FF5D
:1048F00023E000A8401C80490A780270012200A928
:10490000491C0220FFF75EFF17E0FFF7B7FF14E036
:1049100001A8CC490CC90CC008390838062201A9E5
:104920000420FFF74FFF08E06846002101700122D4
:1049300069462800C0B2FFF745FF2078401C207070
:104940002078052801D30020207037BDFFFEFFFF2F
:104950008106000018A4014008A4014004A40140FD
:10496000FFFF000021100000580B00201C0B00204E
:1049700078B562480168009102220099114000292F
:104980002ED02C490B681A40002A29D0884A137867
:10499000002B21D0264B1D78244C2678EDB2B54251
:1049A00009D219780A00521C1A70824AC9B2515CA5
:1049B000384A116014E00D680226B5430D600025E9
:1049C0002E0016702A0022701D7080225200026094
:1049D0000B681A430A6003E00A6802239A430A60DC
:1049E00080214900009A0A40002A1DD0114A12680D
:1049F0000A40002A18D08F4A1268934B1C78250071
:104A00006D1C1D70914DE4B22A551C78402C01D3C9
:104A100000241C7001238E4C237000231C008D4D3C
:104A20002C709C4C2370016071BD0000560B00205F
:104A3000570B002004A4014010B5102096490A68C5
:104A400002430A6095490A6810430860944C206844
:104A500004218843206093480168F02212030A432E
:104A600002609148914908600220FFF7EBFC0021A9
:104A70000220FFF7F3FC0220FFF7D8FC01208C494D
:104A800008608C490A6810430860206804210143CB
:104A9000216010BD14A4014010B5012084490A68AA
:104AA0000240002A20D0086083490A78521C0A700C
:104AB0000A78322A04DB00220A7001007F4A117052
:104AC00063490A78002A0FD0624A1378052B02DA6C
:104AD00013785B1C13701378052B05DB00231C0077
:104AE0000C706C490870137010BD00005B0B002047
:104AF0005A0B0020408300007283000008A401408C
:104B000038B500F05AF800F093FA634801681022B3
:104B10000A430260F82040036949086069486A490D
:104B20000860012069490860694908605C480168BB
:104B300002220A430260594801680C220A430260BB
:104B40000120FFF773FC00F015FC00F023FC614C22
:104B50002000FDF70FF96049604800F02DFC00F0DF
:104B600038FC5F4D2800FFF711FD2000FEF717FF0E
:104B70002000FDF758F95B4801885B480068FFF7A3
:104B800008FDFFF712FDFFF739FDFFF755FF28007D
:104B9000FFF7FCFC2000FDF703FA00F020FC47487B
:104BA00001780029F3D000210170FFF78BFEEEE7BA
:104BB000580B00201C0B0020704710B54B480168B3
:104BC000090C0268D3439AB2914201D1006800E017
:104BD0008020C0B2FFF7A4FC0020FFF79AFCFFF78B
:104BE000C9FC0020FFF7B9FC3020FFF7AFFC1F2005
:104BF000FFF79DFCFFF7B8FC0024E443FFF79FFCA0
:104C0000012805D03648FFF7C1FC641E002CF5D101
:104C100000213748FFF7B4FC8020C000FFF76BFC91
:104C20000020FFF761FC0220FFF76CFC314832499D
:104C3000086010BD10A4014080B52648406BFBF70A
:104C4000F3FE01BD38830000590B0020680A0020E4
:104C5000530B0020540B002010B501211B4A136890
:104C60000B40002B14D01160002108000100C9B2D4
:104C700014290DDA21490200D2B204235A438A587A
:104C8000521C0300DBB204246343CA50401CEDE70E
:104C900010BD0000550B0020402400400060014082
:104CA000003C0140183C0140204E0000583C0140AF
:104CB000B83C0140983C01405D0B00205C0B00209B
:104CC000143C0140CF070000543C0140B43C01407B
:104CD000943C01400000002088820000F482000023
:104CE00000140140680500203C05002040FBFF1F28
:104CF000001000400024F40044050020180A0020A1
:104D0000704700B5FEE7FEE7F7B584B00598006888
:104D1000066805980189FA20800048430121327F06
:104D20009140491EFCF773FF0700F18B0498FBF7D5
:104D3000F3FF04003A4D20000021FA2292000023E4
:104D4000FCF7BCFFFA2292000023FCF7D0FF020020
:104D50000B00029203932020305C00213A000023D4
:104D6000FCF7ACFFB37E04225343EA580023FCF760
:104D7000A5FF00900191059800790021F27E04239F
:104D80005A43AA580023FCF799FFFA229200002305
:104D9000FCF794FF009A019B80185941029A039BEB
:104DA000FCF7A5FF07B0F0BDF5B583B00F0038687C
:104DB0000668FA24A4003989200048430121728B37
:104DC0009140491EFCF723FF241AB18B0398FBF78F
:104DD000CAFF050028000021124A0023FCF76EFFDD
:104DE000FA2292000023FCF782FF02000B000092DF
:104DF00001933879002122000023FCF75FFF084A65
:104E00009446337E042253436246D2580023FCF773
:104E100055FF009A019BFCF76AFF05B0F0BD00004A
:104E2000C08200001027000070B504006568002DE6
:104E30000ED0A668002E0BD03068281A7168490879
:104E4000884203D335602068B16888473669F1E746
:104E500070BD40687047FEE7F8B50600376800256A
:104E6000032D1DD2022068433018848B387C002823
:104E700010D178690A21694340180090210089B255
:104E80000098801D00F057F8210089B2009800F0CA
:104E90003CF8FFE702206843301804816D1CDFE70F
:104EA000F1BD00B50021032909D202224A4382182C
:104EB000928B02234B43C3181A81491CF3E700BDB0
:104EC000F8B5040026680025032D1DD20220684392
:104ED0002018808B69460880307C00280CD17069CE
:104EE0000A21694347186946B81D00F028F8694649
:104EF000380000F00FF8FFE7684600880221694398
:104F0000611808816D1CDFE7F1BD0A0082804280D4
:104F10000280704702884388D2188388D2180B8891
:104F2000D218920843880380838843800B8883804B
:104F300013000B807047418042880280704730B573
:104F40000288438814001D00A4B2ADB2AC4203D263
:104F500044882200048823000C881500ADB2AC42BE
:104F600007D21C000D88A4B2AC4201D20A8800E02E
:104F70001A00448804800C8844800A8030BD0A00EE
:104F800092B2D20102607047FCB507000E00150016
:104F90002888C4013000C0B2002122000023FCF7A1
:104FA0008DFE00900191802040003100C9B2401A6E
:104FB00000213A680023FCF781FE009A019B8018CB
:104FC0005941000A0A061043090A3860C1092980BC
:104FD000F3BDFEE7124207D08B0706D00B78491CC1
:104FE0000370401C521EF7D87047830706D00B7819
:104FF000491C0370401C521EF9D1704770B4103A1E
:1050000003D378C9103A78C0FBD2530701D318C92B
:1050100018C001D508C908C0D20704D30B88038083
:10502000891C801C002A01D50B78037070BC704766
:1050300080B500F001F801BD0448016804220A436C
:105040000260016801220A430260704710E000E03C
:1050500010B5A24A8020C001106080218901116032
:105060009F4A1368802464051C43146013688024DD
:10507000E4041C43146000229A4B1A701C78002C24
:1050800003D11C78641C1C70F8E7974C20601A70E0
:105090001878002803D11878401C1870F8E72160B0
:1050A0001A701878002803D11878401C1870F8E797
:1050B00010BD10B58A480168802252050A4302607B
:1050C0008020C001884908600021864A1170137849
:1050D000002B03D113785B1C1370F8E77F4B8024FF
:1050E000A4011C6011701478002C03D11478641C86
:1050F0001470F8E7186011701078002803D1107848
:10510000401C1070F8E710BD10B5744A8020800074
:105110001060802149001160714A13688024E40204
:105120001C4314601368802464021C431460002232
:105130006C4B1A701C78002C03D11C78641C1C70FA
:10514000F8E7694C20601A701878002803D11878A5
:10515000401C1870F8E721601A701878002803D1F5
:105160001878401C1870F8E710BD10B55C4801684D
:105170008022D2020A430260802080005A490860DF
:105180000021584A11701378002B03D113785B1C4F
:105190001370F8E7514B802464001C601170147880
:1051A000002C03D11478641C1470F8E71860117097
:1051B0001078002803D11078401C1070F8E710BD5B
:1051C00070B58021084204D08022D201434B1A607E
:1051D00003E08022D201444B1A60414A13688024C4
:1051E00064051C431460002213001C00E4B2082C68
:1051F0002CDA084204D08024E401384D2C6003E00E
:105200008024E401384D2C60364C22702578002D26
:1052100003D125786D1C2570F8E78025AD012F4E50
:10522000356022702678002E03D12678761C2670F1
:10523000F8E72D4E356022702578002D03D12578B2
:105240006D1C2570F8E740005B1CCEE770BD70B5A3
:105250008021084204D080229200204B1A6003E093
:1052600080229200204B1A601D4A13688024E402B9
:105270001C431460002213001C00E4B2082C2CDA3A
:10528000084204D08024A400144D2C6003E0802444
:10529000A400154D2C60134C22702578002D03D1ED
:1052A00025786D1C2570F8E780256D000B4E356064
:1052B00022702678002E03D12678761C2670F8E717
:1052C000094E356022702578002D03D125786D1C9C
:1052D0002570F8E740005B1CCEE770BD940C0040E1
:1052E0008C0C0040520B0020980C004010B50400BC
:1052F000FFF7AEFE2000C0B2FFF762FFFFF7D9FE56
:1053000010BD10B50400FFF7FFFE2000C0B2FFF78C
:105310009EFFFFF72AFF10BDF8B504000F0015002F
:10532000FFF796FE2000C0B2FFF74AFF00262800D4
:1053300080B2864204DAB85DFFF742FF761CF6E7DA
:10534000FFF7B7FEF1BDF8B504000F001500FFF739
:10535000DBFE2000C0B2FFF77AFF0026280080B2F3
:10536000864204DAB85DFFF772FF761CF6E7FFF7B6
:10537000FCFEF1BD80B50520FFF7B8FF7820FFF7F0
:10538000B5FF50220B49C020FFF7C6FFBB20FFF737
:10539000ADFF01BD80B50520FFF7B3FF7820FFF713
:1053A000B0FF50220349C020FFF7CDFFBB20FFF71D
:1053B000A8FF01BDEC04002038B505000C0014481E
:1053C0000560446000F015F8286880472068804731
:1053D00031BD80B50E480068C068804701BD80B50A
:1053E0000B4800684069804701BD094A906091817F
:1053F0007047002006490200CA7302000A7448611F
:1054000088738020C00008830120887670470000E0
:10541000E80A0020FEB505000020694608700F4C20
:105420000020E0736878282804D06878272801D005
:10543000002020746878202812D0212811D0232839
:1054400029D0242851D0262800D1ADE0272800D12A
:105450000AE1282800D14DE17EE100BFE80A0020E2
:105460007FE1A88986086F68300080B2002811D0DB
:10547000AA68310089B2380080B263689B68984797
:10548000002807D0012069460870052028740020F4
:10549000688266E165E1A8890621FCF7B8FB070090
:1054A000380080B200281FD0AE683800471E80B296
:1054B000002819D030780002717808436946488086
:1054C000B21C01216846408863689B6898470028A1
:1054D00008D0012069460870052028746846408875
:1054E000688201E0B61DE0E73BE1A88983086868AF
:1054F00069464880180080B2002854D06846408829
:10550000A9681E00731EB6B2002E4CD0A768BC4618
:105510000700BFB208267E436746BE193200060068
:10552000A789B6B2BE4207D301246E463470032465
:105530002C7400246C8236E00E7836064F783F04D7
:10554000F6198F783F02F619CF78F6190196167979
:10555000002E09D0022E0FD00AD3042E14D00FD360
:10556000062E19D014D31BE0019E17683E7017E079
:10557000019E17683E8013E0019E17683E600FE0B1
:10558000019E17683E700BE0019E17683E8007E0A1
:10559000019E17683E6003E0019E17683E60FFE7CA
:1055A000401C091DADE7DCE0A8890621FCF72FFBB4
:1055B000010089B2002956D0A9680600701EB6B253
:1055C000002E50D00E7836024F783E436F467E80D4
:1055D0006E467688A789BE4208D301246E46347091
:1055E00003242C746C4664886C823CE0A768BC463B
:1055F0006E46778808267E436746BE1932008E784D
:105600003606CF783F04F6190F793F02F6194F7925
:10561000F61933001679002E09D0022E0FD00AD3C6
:10562000042E13D00ED3062E17D013D319E01E006C
:1056300017683E7015E01E0017683E8011E016687E
:1056400033600EE01E0017683E700AE01E00176807
:105650003E8006E01668336003E01E0017683E6077
:10566000FFE7891DA9E77CE0AF68A889082809D071
:10567000012069460870002001002174032129746B
:1056800068826EE038780006797809044018B978A5
:1056900009024018F9784618387900067979090422
:1056A0004018B97909024018F97940180190019819
:1056B000B249884209D0012001006A4611700021D8
:1056C00021740321297468824BE001213000626853
:1056D00012699047002809D001206946087000200F
:1056E000207403202874022068823AE0012020748C
:1056F000666136E06E68207C002807D1012069468B
:10570000087005202874002068822AE0A989606951
:10571000320092B28018626812699047002807D060
:10572000012001006A46117005212974688218E081
:10573000AA68A989606933009BB2C01863685B6975
:105740009847002807D00120694608700520287472
:105750000220688205E004E00220287400206882AC
:1057600007E068460078002803D100200100297472
:105770006882F7BDF8B584B00400002630006946A1
:105780000870AF4D3000E8736078292801D03000F0
:1057900028746078222805D025281ED0292800D119
:1057A00092E0B8E0A08987086068694648803800C0
:1057B00080B2002810D0A268390089B268464088BB
:1057C0006B68DB689847002806D00120694608709E
:1057D0000520207430006082A1E0A089800869461D
:1057E000888160686946C8816846808900286AD0D7
:1057F0006846C08969464880A76868468089411E16
:105800006A46918180B200285DD0A86869464988BF
:1058100008224A438018029068464088A989884235
:1058200007D301206946087005202074300060828B
:1058300049E002980079002809D0022811D00BD342
:10584000042819D012D3062821D01BD326E00298B1
:1058500000680078019021E00298006800880190BB
:105860001CE0029800680068019017E00298006848
:1058700000214056019011E0029800680021405E2E
:1058800001900BE0029800680068019006E0029821
:105890000068006800F020F90190FFE70198000E11
:1058A0003870781C0199090C0170401C0199090A93
:1058B0000170401C01990170471C68464088401CDB
:1058C0006946488099E72AE06768A18968693A00D3
:1058D00092B280186A6812699047002807D00120A8
:1058E00001006A46117005212174608217E0A268E8
:1058F000A18968693B009BB2C0186B689B69984797
:10590000002807D001206946087005202074022075
:10591000608204E003E002202074668206E06846AC
:105920000078002802D130002074668205B0F0BDF6
:1059300010B5434AD37B002B0DD14378012B09D1FD
:105940004368624CA34202D10123D37303E00023D6
:10595000D37312E011E04378012B06D143685B4C0E
:10596000A34202D00023D37307E08A78002A02D131
:105970000022828101E00522828110BDB9FD57130A
:1059800010B504006078002808D101202075504827
:10599000006880688047FFF72CFD4FE060780128A1
:1059A00004D0022803D004280FD03EE042E0606813
:1059B000000E0100C9B2002902D04549887339E0C0
:1059C000032121740021618238E06068000E01002B
:1059D000C9B2002902D0012913D020E0A1680978BA
:1059E0000902A268527811430A0092B2394B9A42D6
:1059F00004D303222274002262821FE0344A1183FE
:105A000012E0A16809780A00D2B2002A03D001226C
:105A10002F4B9A7602E000222D4B9A7604E0022169
:105A200021740021618209E004E00220207400203A
:105A3000608203E0002001002174608210BD00003C
:105A4000E80A002010B5224AD17B002902D10121A9
:105A500001753AE04178032933D14168090E0B0002
:105A6000DBB2002B06D0022B18D010D3042B1AD097
:105A700018D31CE0012283681A7000221300846886
:105A8000637013008468A3708368DA7014E00422E2
:105A900083681A70002283685A700DE0927E8368D2
:105AA0001A7009E008E0002283681A7004E00222FC
:105AB00002740022428208E000210A00027441823E
:105AC00003E0022101740021418210BD7856341296
:105AD000E80A00200104000000180ED2010E7F39F0
